{"abi":[{"type":"function","name":"fee","inputs":[],"outputs":[{"name":"","type":"uint256","internalType":"uint256"}],"stateMutability":"view"},{"type":"function","name":"join","inputs":[{"name":"creator","type":"address","internalType":"address payable"}],"outputs":[],"stateMutability":"payable"},{"type":"function","name":"members","inputs":[{"name":"","type":"address","internalType":"address"},{"name":"","type":"address","internalType":"address"}],"outputs":[{"name":"","type":"bool","internalType":"bool"}],"stateMutability":"view"},{"type":"error","name":"AlreadyMember","inputs":[{"name":"creator","type":"address","internalType":"address"}]},{"type":"error","name":"PaymentRejected","inputs":[]},{"type":"error","name":"PaymentTooLow","inputs":[]}],"bytecode":{"object":"0x6080604052348015600f57600080fd5b506102968061001f6000396000f3fe6080604052600436106100345760003560e01c806328ffe6c814610039578063be43e0451461004e578063ddca3f431461009b575b600080fd5b61004c610047366004610203565b6100c3565b005b34801561005a57600080fd5b50610086610069366004610227565b600060208181529281526040808220909352908152205460ff1681565b60405190151581526020015b60405180910390f35b3480156100a757600080fd5b506100b5655af3107a400081565b604051908152602001610092565b655af3107a40003410156100ea5760405163024a293560e11b815260040160405180910390fd5b6001600160a01b03811660009081526020818152604080832033845290915290205460ff16151560010361014057604051630268f92960e01b81526001600160a01b038216600482015260240160405180910390fd5b600080826001600160a01b0316655af3107a400060405160006040518083038185875af1925050503d8060008114610194576040519150601f19603f3d011682016040523d82523d6000602084013e610199565b606091505b5091509150816101bc576040516338b0ea4360e01b815260040160405180910390fd5b50506001600160a01b03166000908152602081815260408083203384529091529020805460ff19166001179055565b6001600160a01b038116811461020057600080fd5b50565b60006020828403121561021557600080fd5b8135610220816101eb565b9392505050565b6000806040838503121561023a57600080fd5b8235610245816101eb565b91506020830135610255816101eb565b80915050925092905056fea264697066735822122093070c224865d7bd3e2ed6035366258974a59d4f9706ab42117b09a11cf8e88464736f6c63430008190033","linkReferences":{}},"methodIdentifiers":{"fee()":"ddca3f43","join(address)":"28ffe6c8","members(address,address)":"be43e045"},"id":25}